{
  "address": "0x4c383Af8d6072f2fDC07f2c77D39Ae48aaf87354",
  "abi": [
    {
      "inputs": [],
      "stateMutability": "nonpayable",
      "type": "constructor"
    },
    {
      "anonymous": false,
      "inputs": [
        {
          "indexed": true,
          "internalType": "uint256",
          "name": "chainId",
          "type": "uint256"
        }
      ],
      "name": "Create",
      "type": "event"
    },
    {
      "inputs": [],
      "name": "chainId",
      "outputs": [
        {
          "internalType": "uint256",
          "name": "",
          "type": "uint256"
        }
      ],
      "stateMutability": "view",
      "type": "function"
    }
  ],
  "transactionHash": "0xc29daecbce270124e85e09e17cdbcc00cfdef2a9258dea015ab6cdf12099ee81",
  "args": [],
  "numDeployments": 1,
  "solcInputHash": "2f7fa85d815289a04345f164dd0d7cb0",
  "bytecode": "0x608060405234801561001057600080fd5b5046600081905550467f07eac9a0695a188fe9d6fd680bcbbbe39041fb114d5d7ac11252401391f7930760405160405180910390a260b3806100536000396000f3fe6080604052348015600f57600080fd5b506004361060285760003560e01c80639a8a059214602d575b600080fd5b60336047565b604051603e91906064565b60405180910390f35b60005481565b6000819050919050565b605e81604d565b82525050565b6000602082019050607760008301846057565b9291505056fea264697066735822122085bd832a79785d2fbe945bb82d0f176c1e5ea7f8104c1a6dae2ccca540f65d7764736f6c63430008110033",
  "devdoc": {
    "kind": "dev",
    "methods": {},
    "version": 1
  },
  "userdoc": {
    "kind": "user",
    "methods": {},
    "version": 1
  },
  "storageLayout": {
    "storage": [
      {
        "astId": 3,
        "contract": "contracts/ChainIdTest.sol:ChainIdTest",
        "label": "chainId",
        "offset": 0,
        "slot": "0",
        "type": "t_uint256"
      }
    ],
    "types": {
      "t_uint256": {
        "encoding": "inplace",
        "label": "uint256",
        "numberOfBytes": "32"
      }
    }
  }
}